:0200000041AE0F
:10002300800020995FC2980AE599F599FBBA051EED
:100033007A00BB2B04118A804BBB2D0411E9804449
:10004300BB2A043186803DBB2F3A31F98036EB035E
:10005300030303540FB4032CC3EB7C3A9C5025BA1F
:100063000107EB540FF51F801BBA0207EB540FF582
:100073001E8011BA0307EB540FF51D8007EB540FD5
:10008300F51C8000C299323099FDC29975990D30E3
:1000930099FDC29975F00AE51FA4251EF51B75F09D
:1000A3000AE51DA4251CF51AE51B251AF5197599F2
:1000B300303099FDC29975F064849002C993F59923
:1000C3003099FDC299E5F075F00A8493F59930995A
:1000D300FDC299E5F093F5993099FDC29975990D93
:1000E3003099FDC299223099FDC29975990D3099C5
:1000F300FDC29975F00AE51FA4251EF51B75F00ACC
:10010300E51DA4251CF51AC3E51B951A4034759902
:10011300303099FDC2997599303099FDC299F5191E
:1001230075F00A849002C993F5993099FDC299E557
:10013300F093F5993099FDC29975990D3099FDC2E7
:10014300992275992D3099FDC2997599303099FD91
:0A015300C2997599303099FDC299E8
:10015D00C3E51A951BF51975F00A849002C993F53C
:10016D00993099FDC299E5F093F5993099FDC299B1
:10017D0075990D3099FDC299223099FDC2997599E5
:10018D000D3099FDC29975F00AE51FA4251EF51BCA
:10019D0075F00AE51DA4251CF51AE51B851AF0A4BA
:1001AD0085F019F51685F064F565756664C3515DC6
:1001BD00E56875F00A849002C993F5993099FDC2EE
:1001CD0099E5F093F5993099FDC299E56975F00AB5
:1001DD008493F5993099FDC299E5F093F59930998D
:1001ED00FDC29975990D3099FDC299223099FDC2C4
:1001FD009975990D3099FDC29975F00AE51FA425E1
:10020D001EF51B75F00AE51DA4251CF51AE51B85C9
:10021D001AF084F51985F0169002C9740093F599BA
:10022D003099FDC299740093F5993099FDC299E505
:10023D001975F00A8493F5993099FDC299E5F093FB
:10024D00F5993099FDC29975990D3099FDC2992294
:10025D00C0E0C0F0C3756700756800756900757002
:10026D0000756B00E566F5F0E56484F567E5F0F57E
:10027D0069756A08E56533F565E56933F569C3E5C3
:0A028D00699566400AF569D3E5683B
:1002970033F5688006C3E56833F568156AE56AB41F
:1002A70000D8D0F0D0E022C29FD29EC29DD29C53EC
:1002B700877F758920758DF4D28ED2ACD2AF7A0044
:0C02C70080FE30313233343536373839A0
:00000001FF
