:0200000061702D
:10002300800020997CC2980AE599F599FBB4080CE5
:10003300BA01031A806B1A1A8A908065BA051E7A70
:1000430000BB2B0411EB8059BB2D04314A8052BBFA
:100053002A0431E7804BBB2F42515A8044EB030300
:100063000303540FB4032CC3EB7C3A9C5025BA0111
:1000730007EB540FF51F8029BA0207EB540FF51E47
:10008300801FBA0307EB540FF51D8015EB540FF5D2
:100093001C800E11A77A007B00800611C97B0080AB
:1000A30000C299323099FDC29975990D3099FDC2FC
:1000B3009990038B7900E993F5993099FDC299B42E
:1000C3000D01220980F03099FDC29975990D30997F
:1000D300FDC2999003AD7900E993F5993099FDC27A
:1000E30099B40D01220980F03099FDC29975990DDB
:1000F3003099FDC29975F00AE51FA4251EF51B75FD
:10010300F00AE51DA4251CF51AE51B251AF519753A
:1001130099303099FDC29975F064849003D293F5B8
:10012300993099FDC299E5F075F00A8493F59930F9
:1001330099FDC299E5F093F5993099FDC2997599A6
:100143000D3099FDC299223099FDC29975990D30F0
:0201530099FD14
:10015500C29975F00AE51FA4251EF51B75F00AE581
:100165001DA4251CF51AC3E51B951A403475993055
:100175003099FDC2997599303099FDC299F5197577
:10018500F00A849003D293F5993099FDC299E5F070
:1001950093F5993099FDC29975990D3099FDC299DC
:1001A5002275992D3099FDC2997599303099FDC206
:1001B500997599303099FDC299C3E51A951BF519C2
:1001C50075F00A849003D293F5993099FDC299E5AB
:1001D500F093F5993099FDC29975990D3099FDC245
:1001E50099223099FDC29975990D3099FDC299757D
:1001F500F00AE51FA4251EF51B75F00AE51DA425CB
:100205001CF51AE51B851AF0A485F019F51685F07D
:1002150064F565756664C3711FE56875F00A8490B9
:1002250003D293F5993099FDC299E5F093F599308C
:1002350099FDC299E56975F00A8493F5993099FDA0
:10024500C299E5F093F5993099FDC29975990D30EC
:1002550099FDC299223099FDC29975990D3099FD84
:10026500C29975F00AE51FA4251EF51B75F00AE570
:100275001DA4251CF51A70159003DC7900E993F58A
:10028500993099FDC299B40D01220980F0E51B85CD
:020295001AF05D
:1002970084F51985F0169003D2740093F599309977
:1002A700FDC299740093F5993099FDC299E51975C6
:1002B700F00A8493F5993099FDC299E5F093F59981
:1002C7003099FDC299E516604675992E3099FDC2A1
:1002D7009975992E3099FDC29975992E3099FDC25D
:1002E7009975992E3099FDC29975992E3099FDC24D
:1002F7009975992E3099FDC29975F00A8493F599ED
:100307003099FDC299E5F093F5993099FDC2997539
:10031700990D3099FDC29922C0E0C0F0C3756700FE
:10032700756800756900757000756B00E566F5F016
:10033700E56484F567E5F0F569756A08E56533F501
:1003470065E56933F569C3E5699566400AF569D3DB
:10035700E56833F5688006C3E56833F568156AE52F
:100367006AB400D8D0F0D0E022C29FD29EC29DD2FC
:100377009C53877F758920758DF4D28ED2ACD2AF0E
:100387007A0080FE547970652077726F6E672E2031
:10039700506C6561736520747970652061206E7596
:1003A7006D6265722E0D547970652077726F6E6776
:1003B7002E20506C65617365207479706520616EBD
:1003C700206F70657261746F722E0D303132333465
:0E03D7003536373839496E66696E6974790DAE
:00000001FF
